{
  "contractName": "PetShop",
  "abi": [
    {
      "anonymous": false,
      "inputs": [
        {
          "indexed": true,
          "internalType": "address",
          "name": "caller",
          "type": "address"
        },
        {
          "indexed": false,
          "internalType": "uint256",
          "name": "petId",
          "type": "uint256"
        },
        {
          "indexed": false,
          "internalType": "uint256",
          "name": "timestamp",
          "type": "uint256"
        }
      ],
      "name": "Adopted",
      "type": "event"
    },
    {
      "inputs": [
        {
          "internalType": "uint256",
          "name": "_petId",
          "type": "uint256"
        }
      ],
      "name": "adoptPet",
      "outputs": [
        {
          "internalType": "uint256",
          "name": "",
          "type": "uint256"
        }
      ],
      "stateMutability": "nonpayable",
      "type": "function"
    },
    {
      "inputs": [],
      "name": "getAdopters",
      "outputs": [
        {
          "internalType": "address[16]",
          "name": "",
          "type": "address[16]"
        }
      ],
      "stateMutability": "view",
      "type": "function",
      "constant": true
    },
    {
      "inputs": [
        {
          "internalType": "uint256",
          "name": "_petId",
          "type": "uint256"
        }
      ],
      "name": "getSpecificAdopter",
      "outputs": [
        {
          "internalType": "address",
          "name": "",
          "type": "address"
        }
      ],
      "stateMutability": "view",
      "type": "function",
      "constant": true
    }
  ],
  "bytecode": "0x608060405234801561001057600080fd5b50610699806100206000396000f3fe608060405234801561001057600080fd5b50600436106100415760003560e01c806319b81577146100465780633de4eb171461007657806362f5e95114610094575b600080fd5b610060600480360381019061005b919061035c565b6100c4565b60405161006d91906104e2565b60405180910390f35b61007e610265565b60405161008b9190610486565b60405180910390f35b6100ae60048036038101906100a9919061035c565b6102e6565b6040516100bb919061046b565b60405180910390f35b60008073ffffffffffffffffffffffffffffffffffffffff16600083601081106100f1576100f06105a0565b5b0160009054906101000a900473ffffffffffffffffffffffffffffffffffffffff1673ffffffffffffffffffffffffffffffffffffffff1614610169576040517f08c379a0000000000000000000000000000000000000000000000000000000008152600401610160906104c2565b60405180910390fd5b6000821015801561017a5750600f82105b6101b9576040517f08c379a00000000000000000000000000000000000000000000000000000000081526004016101b0906104a2565b60405180910390fd5b33600083601081106101ce576101cd6105a0565b5b0160006101000a81548173ffffffffffffffffffffffffffffffffffffffff021916908373ffffffffffffffffffffffffffffffffffffffff1602179055503373ffffffffffffffffffffffffffffffffffffffff167f7f3417dfd9516f3f9d39e1969a1aba99e7372d12a447aaec4f996c21a3e6e9e083426040516102559291906104fd565b60405180910390a2819050919050565b61026d610324565b60006010806020026040519081016040528092919082601080156102dc576020028201915b8160009054906101000a900473ffffffffffffffffffffffffffffffffffffffff1673ffffffffffffffffffffffffffffffffffffffff1681526020019060010190808311610292575b5050505050905090565b60008082601081106102fb576102fa6105a0565b5b0160009054906101000a900473ffffffffffffffffffffffffffffffffffffffff169050919050565b604051806102000160405280601090602082028036833780820191505090505090565b6000813590506103568161064c565b92915050565b600060208284031215610372576103716105cf565b5b600061038084828501610347565b91505092915050565b600061039583836103a1565b60208301905092915050565b6103aa81610564565b82525050565b6103b981610564565b82525050565b6103c881610530565b6103d28184610548565b92506103dd82610526565b8060005b8381101561040e5781516103f58782610389565b96506104008361053b565b9250506001810190506103e1565b505050505050565b6000610423602283610553565b915061042e826105d4565b604082019050919050565b6000610446601183610553565b915061045182610623565b602082019050919050565b61046581610596565b82525050565b600060208201905061048060008301846103b0565b92915050565b60006102008201905061049c60008301846103bf565b92915050565b600060208201905081810360008301526104bb81610416565b9050919050565b600060208201905081810360008301526104db81610439565b9050919050565b60006020820190506104f7600083018461045c565b92915050565b6000604082019050610512600083018561045c565b61051f602083018461045c565b9392505050565b6000819050919050565b600060109050919050565b6000602082019050919050565b600081905092915050565b600082825260208201905092915050565b600061056f82610576565b9050919050565b600073ffffffffffffffffffffffffffffffffffffffff82169050919050565b6000819050919050565b7f4e487b7100000000000000000000000000000000000000000000000000000000600052603260045260246000fd5b600080fd5b7f706574206964206d7573742062652077697468696e2030202d2031362072616e60008201527f6765000000000000000000000000000000000000000000000000000000000000602082015250565b7f70657420616c7265616479206f776e6564000000000000000000000000000000600082015250565b61065581610596565b811461066057600080fd5b5056fea2646970667358221220769e232827b98cd9240c6d5564d63f196423dcb24460a624520c1778941d253a64736f6c63430008070033",
  "immutableReferences": {},
  "source": "// SPDX-License-Identifier: UNLICENSED\npragma solidity >=0.4.0;\n\n\ncontract PetShop {\n  address[16] adopters;\n\n  event Adopted(address indexed caller, uint petId, uint timestamp);\n\n \n  function adoptPet(uint _petId)  public returns(uint) {\n\n    if(adopters[_petId] != address(0)) {\n      revert('pet already owned');\n    }\n    \n    require(_petId >= 0 && _petId < 15, 'pet id must be within 0 - 16 range');\n    adopters[_petId] = msg.sender;\n    emit Adopted(msg.sender, _petId, block.timestamp);\n    return _petId;\n  }\n\n\n  function getAdopters() public view returns(address[16] memory) {\n    return adopters;\n\n  }\n\n  function getSpecificAdopter(uint _petId) public view returns(address) {\n    return adopters[_petId];\n  }\n\n  \n}",
  "sourcePath": "/home/sprtd/Desktop/Udacity/lesson-4-supply-chain/ipfs/claim-loot-dapp/contracts/PetShop.sol",
  "compiler": {
    "name": "solc",
    "version": "0.8.7+commit.e28d00a7.Emscripten.clang"
  },
  "schemaVersion": "3.4.3",
  "updatedAt": "2021-09-16T10:37:43.601Z",
  "networkType": "ethereum",
  "devdoc": {
    "kind": "dev",
    "methods": {},
    "version": 1
  },
  "userdoc": {
    "kind": "user",
    "methods": {},
    "version": 1
  }
}